:020000040800F2
:10000000D80101205D020008652C00086F27000858
:10001000612C0008090500083D35000800000000BB
:100020000000000000000000000000009D0100082A
:100030005F06000800000000F90100080D2D00080F
:1000400077020008770200087702000877020008AC
:10005000770200087702000877020008770200089C
:10006000770200087702000877020008770200088C
:100070006105000877020008710500087702000892
:100080007702000877020008770200082D050008B3
:100090000D0500081D05000877020008770200081A
:1000A000770200087702000877020008770200084C
:1000B000152E0008252E0008770200087702000898
:1000C000770200087702000877020008770200082C
:1000D00077020008E534000877020008F5340008CC
:1000E000770200087702000877020008770200080C
:1000F00077020008770200087702000877020008FC
:1001000077020008770200087702000877020008EB
:100110000D2F00081D2F0008770200087702000845
:1001200077020008770200087702000877020008CB
:1001300077020008770200087702000877020008BB
:1001400077020008770200087702000877020008AB
:10015000770200087702000877020008770200089B
:10016000770200087702000877020008770200088B
:1001700077020008770200087702000800000000FC
:100180007702000877020008DFF80CD000F0FAF8D8
:1001900000480047993D0008D80101202C4B196800
:1001A0000868B0E8F04F80F30988BFF36F8F4FF015
:1001B000000080F3118870470000000008480068C4
:1001C000006880F308884FF0000080F3148862B65E
:1001D00061B6BFF34F8FBFF36F8F00DF00BF00BF6B
:1001E00008ED00E0DFF80C00016841F470010160E7
:1001F000704700BF88ED00E0EFF30980BFF36F8F19
:10020000134B1A681EF0100F08BF20ED108A20E96A
:10021000F04F106009B44FF0500080F31188BFF325
:100220004F8FBFF36F8F04F055FD4FF0000080F348
:10023000118809BC19680868B0E8F04F1EF0100F6B
:1002400008BFB0EC108A80F30988BFF36F8F704746
:1002500038000020EFF30580704700000648804713
:1002600006480047FEE7FEE7FEE7FEE7FEE7FEE79B
:10027000FEE7FEE7FEE7FEE7F92D0008890100082A
:100280002DE9F05F0546002092469B4688460646CB
:10029000814640241BE0284641464746224600F05E
:1002A00061F853465A46C01A914110D31146184678
:1002B000224600F048F82D1A67EB01084F46224607
:1002C0000120002100F03FF817EB00094E41201EED
:1002D000A4F10104DFDC484631462A464346BDE826
:1002E000F09F10B5431A934209D28318881803E08F
:1002F00010F8011D03F8011D521EF9D210BD40EA8D
:1003000001039B0703D009E008C9121F08C0042A93
:10031000FAD203E011F8013B00F8013B521EF9D27A
:1003200010BDD2B201E000F8012B491EFBD270478C
:100330000022F6E710B513460A4604461946FFF7B1
:10034000F0FF204610BD202A04DB203A00FA02F11B
:10035000002070479140C2F1200320FA03F31943B3
:1003600090407047202A04DB203A21FA02F0002155
:10037000704721FA02F3D040C2F1200291400843B5
:1003800019467047064C074D06E0E06840F001034F
:1003900094E8070098471034AC42F6D3FFF7F8FE14
:1003A000245800086458000855494A6822F440322D
:1003B0004A604A6843681A434A600268526822F4F5
:1003C000807203685A6002685368026943EA022235
:1003D00003685A600268526822F0407203685A60EB
:1003E0000268526883681A4303685A600268926818
:1003F00022F4006203689A6002689268C3681A4334
:1004000003689A603F4B826A9A4218D002689268E9
:1004100022F0706203689A6002689268836A1A43E5
:1004200003689A600268926822F0405203689A60FA
:1004300002689268C36A1A4303689A600BE0026814
:10044000926822F0706203689A600268926822F0F3
:10045000405203689A600268926822F002020368C0
:100460009A6002689368027E43EA420203689A60D7
:100470002022125CA2B10268526842F40062036852
:100480005A600268526822F4604203685A60026847
:100490005368426A521E43EA423203685A6005E0DA
:1004A0000268526822F4006203685A600268D26AE5
:1004B00022F470020368DA620268D36A828B521EE9
:1004C00043EA02520368DA620268926822F4007218
:1004D00003689A600268936890F8302043EA4222E9
:1004E00003689A600268926822F4806203689A60E6
:1004F00002689368426943EA822203689A607047FF
:10050000002301400100000F00BFFEE710B50248C4
:1005100000F0E3F910BD0000100D002010B50248F6
:1005200000F0DBF910BD0000100D002010B50248EE
:1005300000F0D3F910BD0000100D002010B50246E8
:100540000023B1F5806F01D3002010BD002003E02F
:10055000145C1C44E3B2401C8842F9D31846F4E70B
:1005600010B5024800F014FC10BD0000C40E0020BD
:1005700010B5024800F00CFC10BD0000240F002054
:100580000146087810381823B0FBF3F20848805C65
:10059000C865032A05D908686FF30900001D88653E
:1005A00003E008686FF309008865886D70470000F4
:1005B000F8570008014600208A6A8B69CBB932B12E
:1005C000012A0DD0022A03D0032A10D10EE000BF69
:1005D000CB6A03F08073B3F1807F00D1012007E084
:1005E000CB6AB3F1C07F00D1012001E000E000BF81
:1005F00034E08B69B3F5005F1AD132B1012A07D01C
:10060000022A03D0032A11D10AE000BF01200EE024
:10061000CB6A03F08073B3F1807F00D1012006E044
:10062000CB6AB3F1C07F00D1012000E000BF15E02C
:1006300032B1012A05D0022A04D0032A0CD103E0EA
:1006400000BF00BF012008E0CB6A03F08073B3F164
:10065000807F00D1012000E000BF00BF70477047DD
:100660007047000038B502460020009000BF92F8A5
:100670003C00012801D1022038BD012082F83C0055
:1006800000BF0868092816D91068C0680C780A3CB1
:1006900004EB44050724AC40A0431468E0600C78E8
:1006A0000A3C04EB44048868A0401468E4682043D2
:1006B0001468E06013E0106800690C7804EB4405EE
:1006C0000724AC40A043146820610C7804EB440478
:1006D0008868A04014682469204314682061486831
:1006E000072817D21068406B0C79641E04EB840550
:1006F0001F24AC40A04314686063088880B20C7962
:10070000641E04EB8404A0401468646B20431468E6
:10071000606331E048680D2817D21068006B0C79CF
:10072000E41F04EB84051F24AC40A043146820633D
:10073000088880B20C79E41F04EB8404A04014689C
:10074000246B20431468206316E01068C06A0C799B
:100750000D3C04EB84051F24AC40A0431468E06208
:10076000088880B20C790D3C04EB8404A040146826
:10077000E46A20431468E062194B1A4C1068A042E6
:1007800006D10868122803D1586840F480005860E8
:10079000144C1068A0421CD10868102802D00868C8
:1007A000112816D1586840F40000586008681028D5
:1007B0000FD10D4800680D4CB0FBF4F000EB800049
:1007C0004000009002E00098401E00900098002831
:1007D000F9D100BF002082F83C0000BF00BF4BE70A
:1007E00000230140002001403400002040420F005F
:1007F00070B5044600250CB9012070BD1549A06AEA
:10080000884200D000BF206C30B9204600F024F8A8
:100810000020606484F83C00206C00F0100088B96F
:10082000206C20F4885040F0020020642046FFF73E
:10083000BBFD00206064206C20F0020040F001004D
:10084000206400E0012500BF002084F83C0000BFC8
:100850002846D2E70100000F10B586B004461421E7
:1008600001A8FFF765FD1949206888422BD100BF18
:10087000002000901648006840F480701449086019
:100880000846006800F48070009000BF00BF00BF01
:10089000002000900E481438006840F004000C4915
:1008A000143908600846006800F00400009000BF9A
:1008B00000BF08200190032002900020039001A9AE
:1008C000044800F0FBFB06B010BD00000020014012
:1008D000443802400008024070472DE9F05F0446AA
:1008E0000025206846692068D0F804902068876851
:1008F0002068D0F80CA02068D0F810B02068D0F89C
:10090000188006F00100002855D007F00100C0B1A2
:1009100001202168886007F0020018B1204600F02D
:100920001DFA0EE007F0040010B145F4006508E080
:1009300007F0080010B145F4805502E0204600F0B1
:100940000CFA07F48070C8B14FF480702168886099
:1009500007F4007018B1204600F002FA0EE007F428
:10096000806010B145F4005508E007F4006010B154
:1009700045F4804502E0204600F0F1F907F48030AC
:10098000C8B14FF480302168886007F4003018B196
:10099000204600F0E7F90EE007F4802010B145F49E
:1009A000004508E007F4002010B145F4803502E06E
:1009B000204600F0D6F906F0080038B10AF0100021
:1009C00020B145F4007510202168C86006F00400CD
:1009D00040B10AF0080028B108202168C86020460C
:1009E00000F0B6F906F0020038B12068C06800F0E7
:1009F000030010B1204600F0ACF906F0400038B119
:100A00000BF0100020B145F48065102021680861CA
:100A100006F0200040B10BF0080028B10820216842
:100A20000861204600F096F906F0100038B1206801
:100A3000006900F0030010B1204600F08CF906F4C4
:100A4000003040B109F0100028B110202168486042
:100A5000204600F081F906F4803040B109F008002A
:100A600028B1082021684860204600F07CF906F48F
:100A7000004088B309F0040078B306F4807020B118
:100A800008F0010008B145F0010506F4007020B13E
:100A900008F0020008B145F0020506F4806020B1BC
:100AA00008F0040008B145F0040506F40060A0B1A8
:100AB00008F0700088B108F07000402817D006DCFC
:100AC00010280BD020280CD0302819D10CE0502849
:100AD00010D0602814D110E01DE019E045F00805A1
:100AE0000FE045F010050CE045F0200509E045F069
:100AF000400506E045F0800503E045F4807500E020
:100B000000BF00BF2068806920F070002168886104
:100B10000420216848602DB1606A28436062204645
:100B2000FFF7DAFEBDE8F09F70B504460CB901206E
:100B300070BD94F8200010B9204600F0AFF820688E
:100B4000006820F002002168086000F0CFFB054635
:100B50000DE000F0CBFB401B0A2808D9606A40F486
:100B600000306062052084F820000120E0E7206862
:100B7000406800F002000028EBD12068006840F0D7
:100B800001002168086000F0B1FB05460DE000F0AF
:100B9000ADFB401B0A2808D9606A40F4003060624F
:100BA000052084F820000120C2E72068406800F09A
:100BB00001000028EBD0207E012806D120680068C3
:100BC00040F080002168086005E02068006820F09F
:100BD000800021680860607E012806D120680068D6
:100BE00040F040002168086005E02068006820F0BF
:100BF000400021680860A07E012806D120680068B6
:100C000040F020002168086005E02068006820F0BE
:100C1000200021680860E07E012806D12068006875
:100C200020F010002168086005E02068006840F0AE
:100C3000100021680860207F012806D12068006824
:100C400040F008002168086005E02068006820F096
:100C5000080021680860607F012806D120680068CC
:100C600040F004002168086005E02068006820F07A
:100C7000040021680860D4E902010843216908439F
:100C8000616908436168491E08432168C861002002
:100C90006062012084F82000002049E710B586B08A
:100CA0000446142101A8FFF743FB26492068884227
:100CB00046D100BF002000902348006840F000703B
:100CC000214908600846006800F00070009000BFED
:100CD00000BF00BF002000901B481038006840F0A3
:100CE00008001949103908600846006800F008003B
:100CF000009000BF00BF03200190022002900390EB
:100D0000032004900920059001A9104800F0D6F9AD
:100D100000220521132000F0BFFB132000F0ACFBE4
:100D200000220521142000F0B7FB142000F0A4FBE2
:100D300000220521152000F0AFFB152000F09CFBE0
:100D400006B010BD0064004040380240000C024074
:100D500070477047704770477047704770477047DB
:100D60007047704770477047014691F83500022878
:100D700003D08020486501207047052081F83500A8
:100D80000868006820F001000A6810600020F3E79E
:100D9000F8B50446002000908C4800684FF41651C6
:100DA000B0FBF1F7A56D2E6894F85C100820884020
:100DB000304098B12068006800F0040070B12068ED
:100DC000006820F004002168086094F85C10082096
:100DD0008840A860606D40F00100606594F85C1088
:100DE00001208840304068B12068406900F08000F0
:100DF00040B194F85C1001208840A860606D40F01C
:100E00000200606594F85C1004208840304068B1AE
:100E10002068006800F0020040B194F85C100420E3
:100E20008840A860606D40F00400606594F85C1034
:100E300010208840304078B32068006800F0080037
:100E400050B394F85C1010208840A86020680068B7
:100E500000F4802080B12068006800F4002028B9E8
:100E6000206CC8B12046216C884715E0A06C98B171
:100E70002046A16C88470FE02068006800F480706D
:100E800028B92068006820F0080021680860206CFC
:100E900010B12046216C884794F85C1020208840CF
:100EA0003040002865D02068006800F0100000285D
:100EB0005FD094F85C1020208840A86094F835003A
:100EC000052828D12068006820F0160021680860F5
:100ED0002068406920F0800021684861206C08B9D2
:100EE000A06C28B12068006820F008002168086024
:100EF00094F85C103F208840A86000BF002084F870
:100F0000340000BF012084F83500206D10B1204668
:100F1000216D8847F8BD2068006800F4802080B10A
:100F20002068006800F4002028B9606C10B12046E9
:100F3000616C88471DE0E06BD8B12046E16B8847C3
:100F400017E02068006800F4807068B920680068C5
:100F500020F010002168086000BF002084F83400F1
:100F600000BF012084F83500E06B10B12046E16B32
:100F70008847606D38B3606D00F00100F0B1052066
:100F800084F835002068006820F0010021680860BE
:100F900000BF0098401C0090B84200D905E02068CE
:100FA000006800F001000028F3D100BF00BF00205E
:100FB00084F8340000BF012084F83500E06C10B1E3
:100FC0002046E16C884700BFA4E700003400002001
:100FD0002DE9F0410446002500F088F9074614B9D0
:100FE0000120BDE8F081606A00B100BF00BF0020B1
:100FF00084F8340000BF022084F8350020680068BF
:1010000020F00100216808600AE000F06FF9C01BC1
:10101000052805D920206065032084F83500E0E725
:101020002068006800F001000028EED12068056803
:1010300021480540D4E901010843E16808432169DA
:10104000084361690843A1690843E1690843216ACB
:1010500008430543606A042803D1D4E90B0108431F
:101060000543206805602068456925F00705606A2A
:101070000543606A04280DD1A06A0543E06A48B1BF
:101080002046FFF797FA28B140206065012084F8D8
:101090003500A6E7206845612046FFF771FA06464D
:1010A00094F85C103F208840B0600020606501200B
:1010B00084F83500002094E73F8010F0F8B5024630
:1010C0000B460025002400200021DCE0012606FA62
:1010D00001F51E6806EA0504AC4273D15E68012E74
:1010E00008D05E68022E05D05E68112E02D05E68C0
:1010F000122E13D190684F000326BE40B0434F001C
:10110000DE68BE4030439060506801268E40B04398
:101110001E79C6F300168E4030435060D0684F00F1
:101120000326BE40B0434F009E68BE403043D060AF
:101130005E68022E02D05E68122E13D1CF0802F133
:10114000200656F827004E07F70E0F26BE40B04384
:101150004F07FF0E1E69BE403043CF0802F1200644
:1011600046F8270010684F000326BE40B0431E79A2
:1011700006F003064F00BE40304310605E6806F084
:101180008056B6F1805F7DD100BF00260096404EAC
:10119000366846F480463E4F3E603E46366806F46A
:1011A0008046009600BF00BF3A4E8F0856F82700D1
:1011B0008E07370F0F26BE40B043374EB24202D1E2
:1011C000002624E05EE0354EB24201D101261EE049
:1011D000334EB24201D1022619E0324EB24201D161
:1011E000032614E0304EB24201D104260FE02F4E08
:1011F000B24201D105260AE02D4EB24201D10626A7
:1012000005E02C4EB24201D1072600E008268F07E8
:101210003F0FBE4030431F4E8F0846F82700264E32
:101220003068A0435E6806F48036B6F5803F00D192
:101230002043214E3060361D3068A0435E6806F4BE
:101240000036B6F5003F00D120431B4E361D3060FE
:10125000361D3068A0435E6806F48016B6F5801F20
:1012600000D12043144E08363060361D3068A0434C
:101270005E6806F40016B6F5001F00D120430E4E3E
:101280000C363060491C1029FFF420AFF8BD000077
:101290004438024008380140000002400004024087
:1012A00000080240000C02400010024000140240FE
:1012B00000180240001C0240003C01400246136935
:1012C0000B400BB1012000E00020704742690A404A
:1012D0008A4202D10A04826100E0816170470AB14A
:1012E000816101E00B0483617047000001480068E0
:1012F000704700002800002070B504460CB901209A
:1013000070BD4CF6CC402168086045F2555021680C
:101310000860D4E9001048602168A0688860FFF781
:10132000E5FF054606E0FFF7E1FF401B302801D945
:101330000320E5E72068C0680028F4D14AF6AA2017
:10134000216808600020DBE703480068034909784A
:101350000844014908607047280000203000002040
:1013600010B50D48006840F400700B49086008464D
:10137000006840F4806008600846006840F48070AF
:101380000860032000F0C6F8002000F007F800F025
:1013900049F8002010BD0000003C024070B588B044
:1013A000044600250026002221461C2000F074F887
:1013B0001C2000F061F800BF002001901648006872
:1013C00040F00100144908600846006800F0010080
:1013D000019000BF00BF02A903A800F071F900F05E
:1013E00097F945000D48B5FBF0F0461E4FF08040E0
:1013F0000B49086040F2E7310948C16046600021AE
:101400000161816000F09CFC20B9054800F0B3FC4C
:1014100008B070BD0120FBE74038024040420F0099
:10142000A800001008B500BF002000901148006817
:1014300040F480400F4908600846006800F480408E
:10144000009000BF00BF00BF00200090081F006890
:1014500040F08050091F08600846006800F0805086
:10146000009000BF00BF00220F21901E00F014F872
:1014700008BD00004438024001460846002809DB48
:1014800000F01F0301229A4043099B0003F1E0236F
:10149000C3F8002100BF70472DE9F05F80460D467C
:1014A0001646002702F05CF8074639462A463346BE
:1014B00001F00700C0F1070ABAF1040F02D94FF09A
:1014C000040A01E0C0F1070AD14600F1040ABAF1AA
:1014D000070F02D24FF0000A01E0A0F1030AD44640
:1014E0004FF0010A0AFA09FAAAF1010A0AEA020A05
:1014F0000AFA0CFA4FF0010B0BFA0CFBABF1010BE3
:101500000BEA030B4AEA0B042146404602F030F88E
:10151000BDE8F09F00BF00F00702064B19684FF6C8
:10152000FF031940044B0B4343EA0221014B1960AE
:1015300000BF70470CED00E00000FA0570B50446EE
:101540000D460CB9012070BD5848006800F00F002E
:10155000A84209D255490D700846006800F00F00F6
:10156000A84201D00120EEE7207800F00200022816
:101570001DD1207800F00400042805D14C480068F3
:1015800040F4E0504A490860207800F0080008283C
:1015900005D14748006840F4604045490860444828
:1015A000006820F0F000A1680843414908602078F5
:1015B00000F00100A8B36068012807D13C48083852
:1015C0000068C0F34040B8B90120BCE76068022859
:1015D00002D06068032807D1354808380068C0F396
:1015E000406048B90120AEE7314808380068C0F3D0
:1015F000400008B90120A6E72D48006820F003004C
:10160000616808432A490860FFF770FE064609E052
:10161000FFF76CFE801B41F28831884202D903201B
:1016200091E707E02248006800F00C006168B0EB29
:10163000810FEDD11D48006800F00F00A84209D9C4
:101640001A490D700846006800F00F00A84201D04A
:10165000012078E7207800F00400042807D114481E
:10166000006820F4E050E1680843114908602078E0
:1016700000F00800082808D10D48006820F46040F8
:10168000216940EAC1000A49086000F061F8084990
:101690000968C1F30311074A515CC8400649086054
:1016A00006480068FFF77AFE00204CE7003C024045
:1016B0000838024000580008340000202C000020A8
:1016C0000F2202600D4A126802F0030242600B4AC8
:1016D000126802F0F0028260084A126802F4E052D6
:1016E000C260064A126802F46042D2080261044AEB
:1016F000126802F00F020A607047000008380240CA
:10170000003C02400148006870470000340000209F
:1017100000B5FFF7F7FF04490968C1F38221034AC6
:10172000515CC84000BD0000083802401058000855
:1017300000B5FFF7E7FF04490968C1F34231034AE6
:10174000515CC84000BD0000083802401058000835
:101750002DE9F047002400250026A1462548006811
:1017600000F00C0020B1042805D008283AD105E08B
:10177000DFF8849039E0DFF8849036E01D48001FE0
:10178000006800F03F041B48001F006800F4800060
:1017900078B11A481749091F0968C1F38811A0FBDD
:1017A00001700146224600233846FEF769FD0546D2
:1017B0000EE011480F49091F0968C1F38811A0FB09
:1017C00001700146224600233846FEF759FD0546C2
:1017D0000848001F0068C0F30140401C4600B5FBEC
:1017E000F6F902E0DFF8109000BF00BF4846BDE800
:1017F000F0870000083802400024F40000127A004C
:10180000F8B504460CB90120F8BD207800F00100BD
:10181000002874D0F948006800F00C0004280DD0AE
:10182000F648006800F00C00082813D1F348001FA8
:10183000006800F48000B0F5800F0BD1EF48083845
:101840000068C0F34040002859D06068002856D195
:101850000120D9E700BF6068B0F5803F08D1E748B4
:101860000838006840F48030E449083908601EE018
:101870006068B0F5A02F0DD1E0480838006840F44A
:101880008020DE49083908600846006840F480304E
:1018900008600CE0D9480838006820F48030D74947
:1018A000083908600846006820F48020086000BFFE
:1018B000606890B1FFF71AFD054606E0FFF716FDD8
:1018C000401B642801D903209EE7CC4808380068F3
:1018D000C0F340400028F1D011E0FFF707FD0546B6
:1018E00006E0FFF703FD401B642801D903208BE7C6
:1018F000C24808380068C0F340400028F1D1207881
:1019000000F0020002285FD1BC48006800F00C0023
:1019100058B1BA48006800F00C0008281CD1B7483C
:10192000001F006800F48000B0B9B44808380068AF
:10193000C0F3400020B1E068012801D0012063E736
:10194000AE480838006820F0F800216940EAC1007C
:10195000AA490839086037E0E06800B30120A849C7
:101960000860FFF7C3FC054606E0FFF7BFFC401B1D
:10197000022801D9032047E7A04808380068C0F3CF
:1019800040000028F1D09D480838006820F0F80099
:10199000216940EAC10099490839086014E0002033
:1019A00097490860FFF7A2FC054606E0FFF79EFC9A
:1019B000401B022801D9032026E790480838006818
:1019C000C0F340000028F1D1207800F0080008287A
:1019D0002CD16069A8B101208A490860FFF786FC14
:1019E000054606E0FFF782FC401B022801D90320D0
:1019F0000AE782486C300068C0F340000028F1D04C
:101A000014E000207F490860FFF770FC054606E0FF
:101A1000FFF76CFC401B022801D90320F4E677484D
:101A20006C300068C0F340000028F1D1207800F04D
:101A30000400042870D1002770483830006800F096
:101A4000805090B900BF002000906C48383000688A
:101A500040F080506949383108600846006800F05D
:101A60008050009000BF00BF01276748006800F465
:101A70008070B0B96448006840F4807062490860C2
:101A8000FFF734FC054606E0FFF730FC401B022858
:101A900001D90320B8E65C48006800F48070002893
:101AA000F2D000BFA068012808D15448683000680F
:101AB00040F001005149683108601DE0A068052828
:101AC0000DD14E486830006840F004004B49683141
:101AD00008600846006840F0010008600CE04748D4
:101AE0006830006820F00100444968310860084609
:101AF000006820F00400086000BFA068A8B1FFF7EC
:101B0000F5FB054609E0FFF7F1FB401B41F2883188
:101B1000884202D9032077E626E03848683000681A
:101B2000C0F340000028EED013E0FFF7DFFB0546CE
:101B300008E0FFF7DBFB401B41F28831884201D906
:101B4000032061E62D4868300068C0F3400000289B
:101B5000EFD1012F07D129483830006820F080509C
:101B600026493831086000BFA069002845D02348C5
:101B7000006800F00C0008285DD0A069022845D15B
:101B800000201F490866FFF7B1FB054606E0FFF796
:101B9000ADFB401B022801D9032035E61748083861
:101BA0000068C0F340600028F1D1D4E90701084380
:101BB000616A40EA81110122A06AC2EB500041EA49
:101BC00000412C20005D41EA00600C49091F0860BB
:101BD00001200B490866FFF789FB054606E0FFF781
:101BE00085FB401B022801D903200DE60348083875
:101BF0000068C0F340600028F1D03FE008380240A0
:101C000000004742800E47420070004000201C49FF
:101C10000866FFF76BFB054606E0FFF767FB401B16
:101C2000022801D90320EFE516480068C0F34060A0
:101C30000028F2D122E0A069012800D1E4E5114892
:101C4000001D066806F48001E069814214D106F0A7
:101C50003F01206A81420FD147F6C0703040616A6F
:101C6000884209D106F44031A06A814204D106F0CD
:101C70007061E06A814201D00120C5E50020C3E522
:101C800000004742003802407047704730B50246B6
:101C90000B4600BF92F83C00012801D1022030BD64
:101CA000012082F83C0000BF022082F83D0010684D
:101CB00044681068816824F0700418680443106850
:101CC0004460184D1068A8421BD01068B0F1804FD6
:101CD00017D0154D1068A84213D0144D1068A842B3
:101CE0000FD0134D1068A8420BD0124D1068A842B7
:101CF00007D0114D1068A84203D0104D1068A842BB
:101D000005D121F0800158680143106881600120ED
:101D100082F83D0000BF002082F83C0000BF00BFF9
:101D2000BDE7000000000140000400400008004042
:101D3000000C004000040140004001400018004039
:101D400010B504460CB9012010BD94F83D0028B927
:101D5000002084F83C00204600F00CF8022084F8B3
:101D60003D00211D206801F065F8012084F83D0048
:101D70000020E9E7704701460868C06840F00100AC
:101D80000B68D8600868806800F00702062A05D052
:101D90000868006840F001000B6818600020704778
:101DA0002DE9F04104460D4614B90120BDE8F0814B
:101DB00094F83D0028B9002084F83C00204600F04B
:101DC00047F8022084F83D002068806844F207014B
:101DD000884321688860211D206801F02BF8206865
:101DE000D0F80880206886692068076A286840EA79
:101DF000080840F203308643A969A86840EA012038
:101E0000064340F60C4086434FF2F0008643E969F2
:101E1000E86840EA0120064328690001296A40EA8F
:101E20000130064327F0220727F0880769696868B0
:101E300040EA011007432068C0F8088020688661E6
:101E400020680762012084F83D000020AEE7000012
:101E500010B586B00446142101A8FEF769FA394985
:101E60002068884237D100BF0020009036480068C3
:101E700040F00200344908600846006800F00200A3
:101E8000009000BF00BF00BF002000902E48103817
:101E9000006840F001002C491039086008460068CD
:101EA00000F00100009000BF00BFC02001900220A0
:101EB00002900390032004900220059001A923487A
:101EC000FFF7FCF8002205211D20FFF7E5FA1D2091
:101ED000FFF7D2FA33E01E49206888422FD100BFB5
:101EE000002000901848006840F00400164908607F
:101EF0000846006800F00400009000BF00BF00BF6B
:101F00000020009010481038006840F008000E498A
:101F1000103908600846006800F00800009000BF13
:101F200000BF4FF440500190022002900390032024
:101F300004900220059001A90648FFF7BFF806B0FB
:101F400010BD000000040040403802400000024084
:101F500000080040000C0240704710B5044620689D
:101F60000069C0F34000D8B12068C068C0F34000E9
:101F7000B0B16FF00200216808610120207720686D
:101F8000806900F0030018B12046FFF7E5FF05E087
:101F9000204600F0ADF8204600F0ABF80020207796
:101FA00020680069C0F38000D8B12068C068C0F321
:101FB0008000B0B16FF00400216808610220207732
:101FC0002068806900F4407018B12046FFF7C4FF14
:101FD00005E0204600F08CF8204600F08AF800204A
:101FE000207720680069C0F3C000D8B12068C068BD
:101FF000C0F3C000B0B16FF0080021680861042090
:1020000020772068C06900F0030018B12046FFF770
:10201000A3FF05E0204600F06BF8204600F069F8C9
:102020000020207720680069C0F30010D8B1206834
:10203000C068C0F30010B0B16FF0100021680861F3
:10204000082020772068C06900F4407018B120464D
:10205000FFF782FF05E0204600F04AF8204600F036
:1020600048F8002020772068006900F0010058B18E
:102070002068C06800F0010030B16FF001002168F5
:102080000861204600F036F820680069C0F3C010EF
:1020900058B12068C068C0F3C01030B16FF0800044
:1020A000216808612046FFF7EFFD20680069C0F352
:1020B000801058B12068C068C0F3801030B16FF054
:1020C000400021680861204600F01DF82068006982
:1020D000C0F3401058B12068C068C0F3401030B160
:1020E0006FF02000216808612046FFF7CEFD10BD8B
:1020F0007047704710B504462068B0F1804F01D199
:10210000FFF722F910BD704738B504460C49206826
:10211000884213D1E06B00F0080078B100BF0020C6
:10212000009020680068009020684068009000BF20
:1021300000BF14220349044800F05CFA38BD0000D7
:10214000005000408C000020040E00202DE9F047D4
:102150000446206805682068C668206847694FF013
:102160000008C14605F00F08B8F1000F0AD105F0CC
:10217000200038B106F0200020B1204600F000FF1A
:10218000BDE8F087B8F1000F72D007F0010018B970
:1021900006F4907000286BD005F0010030B106F411
:1021A000807018B1E06B40F00100E06305F00400BE
:1021B00030B107F0010018B1E06B40F00200E063BD
:1021C00005F0020030B107F0010018B1E06B40F0FB
:1021D0000400E06305F0080048B106F0200010B9E3
:1021E00007F0010018B1E06B40F00800E063E06B1D
:1021F00070B305F0200028B106F0200010B1204691
:1022000000F0BEFE20684069C0F38019E06B00F06A
:10221000080010B9B9F1000F23D0204600F090FE5D
:102220002068406900F04000402816D120684069CD
:1022300020F0400021684861606B50B11748616B25
:102240000865606BFEF790FD10B1606B016D88470B
:102250000CE02046FFF758FF08E02046FFF754FF48
:1022600004E02046FFF750FF0020E06388E7FFE727
:1022700005F0800030B106F0800018B1204601F072
:10228000C7F87DE705F0400030B106F0400018B116
:10229000204600F065FE73E700BF71E72D2F0008B0
:1022A00010B504460CB9012010BDA06900B100E0D2
:1022B00000BF94F8390028B9002084F8380020467F
:1022C00000F028F8242084F839002068C06820F441
:1022D00000502168C860204600F0A6FE2068006912
:1022E00020F49040216808612068406920F02A00AD
:1022F000216848612068C06840F400502168C860C7
:102300000020E063202084F8390084F83A0000209F
:10231000CAE7000010B586B00446142101A8FEF7F4
:1023200007F8A9492068884239D100BF00200090F1
:10233000A648006840F40020A449086008460068E8
:1023400000F40020009000BF00BF00BF00200090FC
:102350009E481038006840F004009C49103908601D
:102360000846006800F00400009000BF00BF4FF472
:10237000406001900220029001200390032004900D
:102380000820059001A99248FEF798FE0022052139
:102390003420FFF781F83420FFF76EF812E18D4901
:1023A0002068884255D100BF00200090874800680F
:1023B00040F48010854908600846006800F48010E9
:1023C000009000BF00BF00BF002000907F48103881
:1023D000006840F004007D49103908600846006834
:1023E00000F00400009000BF00BF00BF002000907C
:1023F0000846006840F0080008600846006800F0E1
:102400000800009000BF00BF8814019002200290D5
:1024100001200390032004900820059001A96C4836
:10242000FEF74CFE04200190022002900120039050
:10243000032004900820059001A96748FEF73EFE9E
:10244000002205213520FFF727F83520FFF714F883
:10245000B8E062492068884239D100BF002000906E
:102460005A48001D006840F010005849091D0860D6
:102470000846006800F01000009000BF00BF00BFD9
:102480000020009051481038006840F002004F4989
:10249000103908600846006800F00200009000BF94
:1024A00000BFC020019002200290039003200490FE
:1024B0000720059001A94A48FEF700FE00220521E9
:1024C0002520FEF7E9FF2520FEF7D6FF7AE04549F3
:1024D0002068884276D100BF002000903B48006809
:1024E00040F48020394908600846006800F48020E4
:1024F000009000BF00BF00BF00200090334810389C
:10250000006840F002003149103908600846006850
:1025100000F00200009000BF00BF4FF44060019047
:10252000022002900390032004900720059001A947
:102530002B48FEF7C3FD2C482C4908604FF0006083
:102540004860002129488160C1604FF480610161C9
:102550000021416181614FF48071C16100210162FC
:102560004162FEF735FD08B1FEF77AF800BF1F485B
:102570006063846300BF1C4830301D4908604FF021
:102580000060486040211A4881600021C1604FF41A
:1025900080610161002141618161C161016241622B
:1025A000FEF716FD08B1FEF75BF800BF1048206388
:1025B000846300BF002205212720FEF76DFF27203E
:1025C000FEF75AFF06B010BD004C004040380240F4
:1025D0000008024000500040000C02400010014082
:1025E000000402400048004028600240C40E002061
:1025F000240F002010B5034693F83A0020282FD16D
:1026000001B10AB9012010BD00BF93F838000128BC
:1026100001D10220F7E7012083F8380000BF99625A
:102620009A85DA850020D863222083F83A0000BF1B
:10263000002083F8380000BF1868C06840F480703C
:102640001C68E0601868406940F001001C68606127
:102650001868C06840F020001C68E0600020D2E7E5
:102660000220D0E710B5044606492068884208D108
:102670001421054801F03AF904490548006802F0C0
:102680009FFC10BD005000408C0000202400002062
:102690000C0000202DE9F84304460D4616461F465F
:1026A0004FF0000994F8390020285DD105B116B922
:1026B0000120BDE8F88300BF94F83800012801D15B
:1026C0000220F6E7012084F8380000BF0020E06314
:1026D000212084F83900FEF709FE8146A684E684AD
:1026E00000BF002084F8380000BF2BE0E08C401EC3
:1026F000E084A068B0F5805F16D14B4600228021AF
:102700002046009700F0B8FE08B10320D1E7A846A4
:10271000B8F80000C0F3080021684860206908B9D3
:10272000AD1C0FE06D1C0DE04B46002280212046C1
:10273000009700F0A1FE08B10320BAE715F8010BDD
:1027400021684860E08C0028D0D14B46002240210F
:102750002046009700F090FE08B10320A9E7202052
:1027600084F839000020A4E70220A2E7704700BFE8
:10277000FEE700001FB5002000900190029003903A
:102780001548164908604FF480304860002113480E
:1027900081600161017680F82010C1621049816278
:1027A0000021C1600121C161002180F830100121A8
:1027B0004161FEF71DF808B1FDF752FF0D200090B2
:1027C000012001900020029069460448FDF74AFF6D
:1027D00008B1FDF745FF1FBD00200140C80C0020D7
:1027E0000100000F10B50E480E4908600620486031
:1027F00000210C488160C1604FF4A02101614FF4B9
:10280000C00141610021017641768176C176017770
:102810004177FEF789F908B1FDF722FF10BD0000EE
:1028200000640040100D002008B500BF002000909B
:102830000E48006840F400100C4908600846006823
:1028400000F40010009000BF00BF002205210C2002
:10285000FEF722FE0C20FEF70FFE002205210E20BF
:10286000FEF71AFE0E20FEF707FE08BD30380240C4
:1028700000B587B0142102A8FDF75AFD00BF002063
:1028800001907348006840F01000714908600846E4
:10289000006800F01000019000BF00BF00BF0020E2
:1028A00001900846006840F0200008600846006873
:1028B00000F02000019000BF00BF00BF0020019089
:1028C0000846006840F0800008600846006800F094
:1028D0008000019000BF00BF00BF002001900846AB
:1028E000006840F0040008600846006800F004003A
:1028F000019000BF00BF00BF0020019008460068A3
:1029000040F0010008600846006800F001000190F6
:1029100000BF00BF00BF002001900846006840F0E3
:10292000020008600846006800F00200019000BF45
:1029300000BF00BF002001900846006840F008007A
:1029400008600846006800F00800019000BF00BF62
:1029500000BF002001900846006840F04000086079
:102960000846006800F04000019000BF00BF002250
:102970003C213848FEF7B3FC002248F601013648F6
:10298000FEF7ADFC00224FF4C0713448FEF7A7FCFF
:102990003C20029001200390022004900120059029
:1029A00002A92C48FEF78AFB48F2010002900120A0
:1029B0000390022004900020059002A92648FEF70B
:1029C0007DFB02200290002003900220049002A9C7
:1029D0002148FEF773FB4FF4006002900120039042
:1029E000022004900320059002A91B48FEF766FB15
:1029F0004FF4FF400290002003900120049002A9B0
:102A00001448FEF75BFB6020029000200390012039
:102A1000049002A91148FEF751FB8020029001208A
:102A20000390022004900320059002A90B48FEF7B2
:102A300045FB4FF480700290012003900220049027
:102A40000020059002A90548FEF738FB07B000BD3D
:102A500030380240001002400014024000180240CA
:102A600010B5074807490860032048604FF48061AB
:102A700004488160FEF740FC08B1FDF7F1FD10BD90
:102A800000300040380D002000B58BB0242102A892
:102A9000FDF74EFC0020009001901848184908608E
:102AA000632048600021164881604FF6FF71C160C5
:102AB000002101618161012002900020039001202A
:102AC00004900020059006900790012008900020B7
:102AD00009900A9002A90A48FFF762F908B1FDF7C8
:102AE000BFFD00200090019069460548FFF7CEF831
:102AF00008B1FDF7B5FD0BB000BD000000040040BB
:102B0000440D002000B58BB0242102A8FDF710FC75
:102B10000020009001901848184908606320486020
:102B20000021164881604FF6FF71C16000210161EC
:102B30008161012002900020039001200490002078
:102B400005900690079001200890002009900A90B7
:102B500002A90A48FFF724F908B1FDF781FD00201A
:102B60000090019069460548FFF790F808B1FDF71D
:102B700077FD0BB000BD000000080040840D002070
:102B800010B50B480B4908604FF4E1304860002154
:102B900008488160C16001610C21416100218161AF
:102BA000C161FFF77DFB08B1FDF75AFD10BD0000C4
:102BB000004C0040C40D002010B50B480B490860C4
:102BC0004FF496404860002108488160C16001616F
:102BD0000C21416100218161C161FFF761FB08B1F6
:102BE000FDF73EFD10BD000000500040040E002027
:102BF00010B50B480B4908604FF4E13048600021E4
:102C000008488160C16001610C214161002181613E
:102C1000C161FFF745FB08B1FDF722FD10BD0000C3
:102C200000100140440E002010B50B480B4908600D
:102C30004FF4E1304860002108488160C1600161C3
:102C40000C21416100218161C161FFF729FB08B1BD
:102C5000FDF706FD10BD000000480040840E002076
:102C600000BFFEE770470000F8B504460D46691E38
:102C70002046FDF763FC0646681E205CB04210D17A
:102C8000671C2078F22800D009E001F00BFE222218
:102C900039460948FDF725FB01F02EFE00BF00BFB5
:102CA00008E0681E0096235C4FF48C72034904A070
:102CB00000F046FCF8BD0000A2080020D057000834
:102CC0005B4552524F525D2825737C256429436829
:102CD00065636B2073756D206E6F74206D61746316
:102CE000682C206578706563743A25782C206163C0
:102CF0007475616C3A25780D0A00000001F062FDE0
:102D000000BF012001F086F8FBE7000010B500BF0E
:102D1000502080F31188BFF34F8FBFF36F8F00BF38
:102D200002F080FB18B14FF080500449086000BFEA
:102D3000002080F3118800BF10BD000004ED00E00A
:102D400000B593B0302107A8FDF7F2FA142102A8CC
:102D5000FDF7EEFA00BF002001902548006840F022
:102D60008050234908600846006800F080500190B8
:102D700000BF00BF00BF002001901E48006840F463
:102D800080401C4908600846006800F480400190BB
:102D900000BF00BF092007904FF480300890012049
:102DA0000C9002200D9041050E9104210F91A82155
:102DB0001091022111910421129107A8FEF720FD24
:102DC00008B1FDF74DFC0F20029002200390002077
:102DD00004904FF4A05005904FF4805006900521C8
:102DE00002A8FEF7ABFB08B1FDF73AFC13B000BD3B
:102DF00040380240007000400548006840F4700010
:102E0000034908604FF0006001498039086070474D
:102E100088ED00E010B50248FFF79FF810BD0000F4
:102E2000A800001010B50248FFF797F810BD000089
:102E3000440D002010B50268294B98420ED0B0F125
:102E4000804F0BD0274B984208D0274B984205D093
:102E5000264B984202D0264B984203D122F07002B2
:102E60004B681A431E4B984220D0B0F1804F1DD0C2
:102E70001C4B98421AD01C4B984217D01B4B9842BF
:102E800014D01B4B984211D01A4B98420ED01A4BBB
:102E900098420BD0194B984208D0194B984205D054
:102EA000184B984202D0184B984203D122F440723A
:102EB000CB681A4322F080034C6943EA04020260A3
:102EC0008B68C3620B688362054B984202D0084B43
:102ED000984201D10B6903630123436110BD0000D7
:102EE000000001400004004000080040000C0040C9
:102EF00000040140004001400044014000480140FE
:102F000000180040001C00400020004010B502489E
:102F1000FFF71CF910BD0000C40D002010B50248D9
:102F2000FFF714F910BD0000040E002070B505462F
:102F3000AC6B0020E085E0842046FFF7E5F870BD2B
:102F40000168C96821F490710268D160016849691B
:102F500021F0010102685161202180F83A10704788
:102F600010B504462068C06820F040002168C860A1
:102F7000202084F839002046FFF7F8FB002010BD20
:102F800070B5044694F83A0022284AD1A068B0F5FA
:102F9000805F13D1A56A206940B920684068C0F3FA
:102FA00008002880A06A801CA06219E020684068A0
:102FB000C0B22880A06A401CA06211E0206938B924
:102FC00020684068C1B2A26A501CA062117007E07C
:102FD0002068406800F07F01A26A501CA062117056
:102FE000E08D401E80B2E085C8B92068C06820F03E
:102FF00020002168C8602068C06820F480702168C3
:10300000C8602068406920F00100216848612020E4
:1030100084F83A002046FFF725FB002070BD002011
:10302000FCE70220FAE700002DE9F84F044620688B
:10303000006920F44050E168084321680861216973
:10304000A068084361690843E1690843009020686B
:10305000C06849F20C618843009908432168C86040
:103060002068406920F44070A169084321684861E4
:10307000E069B0F5004F75D1E3492068884203D07C
:10308000E249206888426FD1FEF752FB8146022058
:103090006168A0FB01510B461920A9FB00712A466B
:1030A0003846FDF7EDF86421B0FBF1F04FEA001A65
:1030B00002206168A0FB01510B461920A9FB007199
:1030C0002A463846FDF7DCF8074602206168A0FB77
:1030D00001510B461920A9FB00B12A465846FDF7BD
:1030E000CFF86421B0FBF1F000EBC00101EB001060
:1030F000A7EB8000322101EBC0006421B0FBF1F0AE
:1031000000F0F8000AEB400A02206168A0FB0151C0
:103110000B461920A9FB00712A463846FDF7B0F886
:10312000074602206168A0FB01510B461920A9FB4C
:1031300000B12A465846FDF7A3F86421B0FBF1F030
:1031400000EBC00101EB0010A7EB8000322101EB86
:10315000C0006421B0FBF1F000F00700504421688A
:1031600088604FE16EE0FFE7FEF7D2FA8146022069
:103170006168A0FB01510B461920A9FB00712A468A
:103180003846FDF77DF86421B0FBF1F04FEA001AF4
:1031900002206168A0FB01510B461920A9FB0071B8
:1031A0002A463846FDF76CF8074602206168A0FB06
:1031B00001510B461920A9FB00B12A465846FDF7DC
:1031C0005FF86421B0FBF1F000EBC00101EB0010EF
:1031D000A7EB8000322101EBC0006421B0FBF1F0CD
:1031E00000F0F8000AEB400A02206168A0FB0151E0
:1031F0000B461920A9FB00712A463846FDF740F816
:10320000074602206168A0FB015003461920A9FB74
:1032100000B12A465846FDF733F86421B0FBF1F0BF
:1032200000EBC00101EB0010A7EB8000322101EBA5
:10323000C0006421B0FBF1F000F0070050442168A9
:103240008860DFE070492068884203D06F492068B9
:1032500088426BD1FEF76CFA814604206168A0FBBE
:1032600001510B461920A9FB00712A463846FDF78B
:1032700007F8824604206168A0FB01510B46192023
:10328000A9FB00712A463846FCF7FAFF6421B0FB1F
:10329000F1F000EBC00101EB0010AAEB800032213D
:1032A00001EB00106421B0FBF1F000F0F00A042003
:1032B0006168A0FB015003461920A9FB00712A4652
:1032C0003846FCF7DDFF6421B0FBF1F00AEB001A91
:1032D00004206168A0FB01510B461920A9FB007175
:1032E0002A463846FCF7CCFF074604206168A0FB5D
:1032F000015003461920A9FB00B12A465846FCF7A5
:10330000BFFF6421B0FBF1F000EBC00101EB001046
:10331000A7EB8000322101EB00106421B0FBF1F03B
:1033200000F00F005044216888606BE0FEF7F0F970
:10333000814604206168A0FB015003461920A9FBC7
:1033400000712A463846FCF79BFF824604206168DC
:10335000A0FB015003461920A9FB00712A463846FC
:10336000FCF78EFF6421B0FBF1F000EBC00101EB34
:103370000010AAEB8000322101EB00106421B0FBA9
:10338000F1F000F0F00A04206168A0FB0150034650
:103390001920A9FB00712A463846FCF771FF642109
:1033A000B0FBF1F00AEB001A04206168A0FB017089
:1033B00003461920A9FB005001463A462846FCF76F
:1033C0005FFF074604206168A0FB015003461920F7
:1033D000A9FB00B12A465846FCF752FF6421B0FB16
:1033E000F1F000EBC00101EB0010A7EB80003221EF
:1033F00001EB00106421B0FBF1F000F00F0050442D
:1034000021688860BDE8F88F001001400014014079
:10341000014691F8390021282CD18868B0F5805FE9
:103420000FD10A6A1088C0F308000B685860086959
:1034300018B9086A801C086209E0086A401C086222
:1034400005E00B6A581C086218780B685860C88C35
:10345000401E80B2C88458B90868C06820F0800057
:103460000B68D8600868C06840F040000B68D860FE
:10347000002070470220FCE72DE9F04104460D468C
:1034800017469846069E21E0701CF8B12EB1FDF754
:103490002DFFA0EB0800B04218D92068C06820F4C6
:1034A000D0702168C8602068406920F00100216860
:1034B0004861202084F8390084F83A0000BF0020D9
:1034C00084F8380000BF0320BDE8F0812068006860
:1034D0002840A84201D1012000E00020B842D3D00A
:1034E0000020F1E710B50248FEF730FE10BD0000E5
:1034F000440E002010B50248FEF728FE10BD000063
:10350000840E002070B504460D460CB9002070BD35
:103510002946204600F0B0F906463046F7E770B578
:1035200005460E461446FF23224631462846FFF73D
:10353000B1F808B1002070BD2046FCE700BFFEE7EF
:103540000FB4054B10B503A9044A029800F034F8F3
:1035500010BC5DF814FB0000293B00085800001067
:1035600002480068C0F30220704700000CED00E044
:1035700010B5002804DB0A07130E054A135406E0B1
:103580000A07140E034A00F00F031B1FD45410BD8A
:1035900000E400E018ED00E002E008C8121F08C1D6
:1035A000002AFAD170477047002001E001C1121FC4
:1035B000002AFBD1704700002DE9FF4F8DB09B46DC
:1035C0000F460446002606E025280BD05A460F99E0
:1035D0009047641C761C20780028F5D111B0304645
:1035E000BDE8F08F0025A8460122984900E0054378
:1035F00014F8013F203B02FA03F00842F7D120788B
:103600002E2817D114F8010F45F004052A280ED0F2
:103610006FF02F022078A0F1300109290AD808EBB9
:10362000880102EB410100EB0108641CF2E757F846
:10363000048B641C20786C280DD004DC4C2812D03C
:103640006A2811D104E074280DD07A280CD10AE040
:1036500045F4001507E0617845F48015814202D1F8
:10366000641C05F58015641C2278692A45D008DCA5
:10367000002AB3D0582A69D0632A10D0642A08D10E
:103680003BE0702A67D0732A13D0752A5CD0782A61
:103690005CD010465A460F999047761CD3E017F835
:1036A000040B8DF8000000208DF80100E946012090
:1036B00003E057F8049B4FF0FF3069074FF0000517
:1036C00001D40AE06D1C45450DDA8542FADB19F894
:1036D00005100029F6D106E06D1C8542FCDB19F8C7
:1036E00005100029F8D12E4404E019F8010B5A46C0
:1036F0000F9990476D1EF8D2A5E00A200021CDE970
:103700000801C5F3025002280DD001CFC117031ED6
:1037100071F100030DDA4FF0000CD0EB0C006CEBF4
:1037200001012D2308E0FF1D27F00707F7E802013C
:10373000EDE72B0504D52B238DF8283001233BE042
:10374000EB0739D02023F7E70A2000E01020002102
:10375000CDE9080107E01020002145F00405CDE97E
:1037600008014FF00808C5F3025002280FD001CF1E
:1037700000214FF0000A2B071FD5702A0DD0DDE97C
:1037800008C38CF0100C5CEA030C0CD015E0FF1D94
:1037900027F00707F7E80201EBE740228DF8282021
:1037A0004FF0010A0BE050EA010306D030238DF8F8
:1037B00028308DF8292002239A46582A04D024A2C2
:1037C0000DF120090B9209E026A2F9E7DDE90823B3
:1037D000FCF756FD0B9B9B5C09F8013D50EA01028A
:1037E000F4D1ADEB090020300890680701D44FF008
:1037F00001080899884502DDA8EB010000E00020DF
:103800008046002506E00AA85A46405D0F99904779
:103810006D1C761C5545F6DB04E030205A460F99A6
:103820009047761CB8F10001A8F10108F5DC05E02D
:1038300019F8010B5A460F999047761C0899481EB3
:1038400008900029F4DC641CC5E60000092801008A
:103850003031323334353637383961626364656606
:1038600000000000303132333435363738394142C8
:10387000434445460000000070B505460C461A4812
:10388000B0F90004A0421AD901F00CF822461649FA
:103890002846FCF726FD1448B0F90004021B124824
:1038A0000119FCF71EFD1048B0F80004001B00B21F
:1038B0000D49A1F8000401F01FF8A0B270BD00F09E
:1038C000F1FF0948B0F8000486B20748B0F90024B7
:1038D00001462846FCF705FD00200349A1F8000435
:1038E00001F00AF83046E9E7A000002070B505466F
:1038F0000C460C48B0F90004B0F5806F10DA0949A5
:10390000B1F90014074A881822462946FCF7E9FC59
:103910000448B0F80004204400B20249A1F80004B1
:1039200070BD0000A000002000202D490860032287
:103930000021012001F0C8FA2A49086014222A490E
:103940002A48FEF757FE4AE0642000F063FA254853
:103950000068D0B132212348006801F0A1FBA0B972
:1039600023480078401C40B221490870084690F96D
:103970000000642808DB01201E49087000201C4953
:1039800008701DA0FFF7DCFD29E02648B0F900040F
:10399000B0F5806F03DB00202249A1F80004214A22
:1039A000B2F90024C2F5806291B21E4AB2F9002435
:1039B0001C4BD018FFF7A6FD044604B90FE01948C8
:1039C000B0F80004204400B21649A1F8000400F049
:1039D000D1FD0020074908700549087000BFB3E712
:1039E0002C0000100C0000208C000020040E002091
:1039F000390000103000001020526561645461737A
:103A00006B2073657269616C2072656164206572F8
:103A1000726F72202C646973636F6E6E6563740DD0
:103A20000A000000C40800204BF2BB301549088092
:103A30004DF6D350C880C120887013480A680260D0
:103A40004968416000241CE000254FF4967000F0A6
:103A5000E1F9641C00F026FF0B480A490A6802607D
:103A60004968416000F048FF03210748801CFCF7CB
:103A700065FD0549487108220448FFF750FD05B26D
:103A800000BFE1E7310000103A000010040E0020F2
:103A9000222220492048FCF724FC002438E000259D
:103AA000642000F0B7F9641C00F0FCFE22221949E2
:103AB0001948FCF716FC1948007840B11648B0F8D0
:103AC000010040F004001449A1F8010007E0124889
:103AD000B0F8010020F004000F49A1F8010000F047
:103AE0000BFF7B200C49087022220D48FCF7F9FBE4
:103AF00023210B48401EFCF721FD0949C91E81F80E
:103B00002500222204490748FFF709FD05B200BF3E
:103B1000C5E70000A208002084000010300000105B
:103B20005F000010840E002000BF054A126802F0FA
:103B30004002002AF9D0C2B2014B5A60704700001F
:103B40000010014010B5304802784FF480512F48E2
:103B500000F0F0F830B101202B4908700020887087
:103B6000487015E0284842784FF40051274800F08B
:103B7000E1F830B1002024490870887001204870B5
:103B800006E000202049087001208870002048705D
:103B90001D48C27880211D4800F0CCF818B10120E2
:103BA0001949C87002E000201749C8701648027908
:103BB0004FF40071154800F0BDF818B1012012490A
:103BC000087102E00020104908710F4882794FF413
:103BD00080710E4800F0AEF818B101200A498871D2
:103BE00002E0002008498871074842794FF480615B
:103BF000064800F09FF818B101200349487102E01F
:103C000000200149487110BD100000100010024052
:103C10001CB513480021017040F202411148FCF725
:103C200087FB114800210160416022210F48FCF709
:103C30007FFB0F480E2100234FF48062CDE9001076
:103C40000CA1104801F04EFB0F48062100234FF451
:103C50008062CDE900100DA1104801F043FB1CBDAE
:103C600030000010C408002031000010A20800201D
:103C700018000010436F6D6D526561645461736B81
:103C800000000000293900081C000010436F6D6D12
:103C900053656E645461736B00000000293A00089C
:103CA0001CB522210748FCF743FB07480D210023E0
:103CB0004FF40062CDE9001004A1084801F012FBA6
:103CC0001CBD00008400001008000020436F6D6DD3
:103CD00053656E645461736B00000000913A0008F4
:103CE0001CB50A48002101604160094801608180DB
:103CF000817108480A2100234FF40062CDE90010C9
:103D000005A10B4801F0EEFA1CBD000005000010F3
:103D100010000010000000104D6F74696F6E436F4B
:103D20006E74726F6C6C65725461736B000000008E
:103D3000033E00082DE9F04105460E4614460027D3
:103D400031462846FDF7BAFA60B95CB9322000F076
:103D500061F831462846FDF7B1FA08B9012717E0A6
:103D6000274615E031462846FDF7A8FA01280ED16E
:103D7000012C0CD1322000F04DF831462846FDF7D9
:103D80009DFA012801D1002702E0274600E02746DE
:103D90003846BDE8F081000088B0FDF7E1FAFEF793
:103DA000CFFFFEF765FDFEF73FFDFEF7E9FEFEF7EC
:103DB00003FFFEF71DFFFEF737FFFEF7DBFCFEF704
:103DC00011FDFEF761FEFEF79DFEFEF749FE1C2287
:103DD000064901A8FCF785FA002101A800F02BF89C
:103DE0000349086000F022F800BFFEE7DC57000836
:103DF0004800001001460020842901D0CA1C10444C
:103E0000704706E0642000F005F8FFF79BFE00F025
:103E10002DFCF7E770B5044625460DB1294600E0B4
:103E20000121084600F020FE002070BD10B500F012
:103E3000F1FE002010BD7FB504460D46606998B1C3
:103E4000A06988B1B4F90800FFF7D4FF0646D4E9A9
:103E50000510CDE9006102902B462269D4E90010DB
:103E600001F072FA039013E0B4F90800FFF7C2FF03
:103E7000064603A8CDE90060238A9AB22B46D4E90E
:103E8000001001F02FFA012802D0002004B070BD0C
:103E90000398FBE72DE9F04105460E461C480768EC
:103EA0001C480068001D00F0A7FC50B919480068C4
:103EB00090F82C1001208840174909688143164862
:103EC0000160681C38B936B112480168091D1348F1
:103ED00000F0DCFC1AE07C190E4800684460BC422B
:103EE00007D20C480168091D0D48006800F0B4FCB9
:103EF0000CE008480168091D0A48006800F0ACFCA5
:103F000009480068844201D207480460BDE8F08196
:103F10004C0000203800002050000020C401001098
:103F2000400000203C0000206800002010B504463E
:103F300000F0B8FC23480068401C22490860224871
:103F4000006840B9204804600846006801280DD187
:103F500000F05CF90AE01D48006838B91A480068AA
:103F6000C06AE16A884201D81748046018480068AE
:103F7000401C1749086094F82C100120884015490E
:103F80000968084313490860E16A01EB8101124A9C
:103F900002EB8100211D00F079FC00F0ADFC0B4824
:103FA000006868B108480068C06AE16A884207D2C0
:103FB0004FF0805009490860BFF34F8FBFF36F8FF8
:103FC00010BD0000480000203800002054000020F0
:103FD0006400002050000020E800001004ED00E024
:103FE00010B516E000F05EFC0C48C068C468201DE7
:103FF00000F002FC0A480068401E094908600948B0
:104000000068401E0749086000F076FC204600F07A
:104010000BF8044800680028E4D110BDB00100107E
:10402000480000204400002010B5044694F85100D8
:1040300030B9206B00F07EFC204600F07BFC1AE0DB
:1040400094F85100012803D1204600F073FC12E0DF
:1040500094F85100022801D1012000E0002050B95D
:1040600000BF502080F31188BFF34F8FBFF36F8FD5
:1040700000BF00BFFEE710BD01464A6A22B10A6BCD
:104080001268C2F1070000E00020704730B54FF41D
:104090004843174800F007042CB1C01D20F007006A
:1040A000134C041B1B1B0246124C22600024114DB2
:1040B0006C60D018083820F007000F4C20600024F6
:1040C0000D4D2D686C600C4D2D682C601146441A06
:1040D0004C60094C24680C60084D4C682C60084DFD
:1040E0004C682C604FF00044064D2C6030BD000041
:1040F000D8110020740000207C00002084000020E3
:10410000800000208800002000BFFFF769FF0648FC
:1041100000680128F9D94FF0805004490860BFF3C6
:104120004F8FBFF36F8FF0E7E800001004ED00E061
:104130002DE9F04106460D4617469846069C0DB9F6
:10414000246000E02760E66325640121204600F03A
:10415000EBFEBDE8F0812DE9FF5F81460E469246F9
:10416000DDE90E7B109CAAF10100216B01EB8008B8
:1041700028F0070808F0070008B9012000E0002037
:1041800050B900BF502080F31188BFF34F8FBFF3A9
:104190006F8F00BF00BFFEE786B1002507E0715DAD
:1041A00004F134004155705D00B902E06D1C102D22
:1041B000F5D300BF00214320015502E0002084F820
:1041C0003400072F00D30627E76267640020A0644D
:1041D000201D00F03EFB04F1180000F03AFB2461C2
:1041E000C7F10700A06164620020E06484F8500019
:1041F00049464046039A00F0A7F92060BBF1000F42
:1042000001D0CBF80040BDE8FF9F000010B50024AE
:1042100007E004EB84010F4A02EB810000F00CFB85
:10422000641C072CF5D30C4800F006FB0B4800F08B
:1042300003FB0B4800F000FB0A4800F0FDFA0A48B7
:1042400000F0FAFA0448094908600448084908607F
:1042500010BD0000E800001074010010880100107B
:104260009C010010B0010010C40100103C000020AF
:104270004000002010B50146164800E000680368C1
:104280008B42FBD30246436813448B4204D14368FC
:104290004C682344436001460A464B681344046853
:1042A000A34211D10C4C03682468A34208D04B6888
:1042B0000468646823444B6003681B680B6005E076
:1042C000054B1B680B6001E003680B60884200D05F
:1042D000016010BD740000207C00002070B5054610
:1042E00000F0E0FAA86B08B9012400E0002400F017
:1042F00003FB204670BD00000A490968096809B936
:10430000012100E0002121B14FF0FF31064A116088
:1043100006E004490968C968C868034A4168116031
:10432000704700003C000020680000200E48006834
:10433000401C08B9012000E0002050B900BF502007
:1043400080F31188BFF34F8FBFF36F8F00BF00BFA3
:10435000FEE700BF502080F31188BFF34F8FBFF3FB
:104360006F8F00BF00BFFEE74C00001070B5044621
:1043700000F098FA94F9455010E0606A08B90120FD
:1043800000E0002038B904F1240001F053F918B11D
:1043900000F0A4FB00E003E0681E45B2002DECDC59
:1043A00000BFFF2084F8450000F0A6FA00F07AFA7A
:1043B00094F9445010E0206908B9012000E0002081
:1043C00048B904F1100001F035F908B100F086FB9E
:1043D000681E45B200E001E0002DECDC00BFFF20CC
:1043E00084F8440000F088FA70BD00002DE9F04127
:1043F00004464FF0000800F065FC4648006808B924
:10440000FFF744FE44480068204000286BD1D4B137
:10441000083404F00700B0B104F00700C0F1080050
:10442000044404F0070008B9012000E0002050B95E
:1044300000BF502080F31188BFF34F8FBFF36F8F01
:1044400000BF00BFFEE7002C4DD034480068844216
:1044500049D8334E3046056801E02E462D6868681D
:10446000A04202D228680028F7D12A480068854275
:1044700039D0306800F10808286830606868001B8F
:10448000102819D92F1907F0070008B9012000E0FA
:10449000002050B900BF502080F31188BFF34F8F28
:1044A000BFF36F8F00BF00BFFEE76868001B786036
:1044B0006C603846FFF7DEFE184968680968081A1C
:1044C000164908600846006816490968884203D200
:1044D00012480068134908600F4968680968084372
:1044E00068600020286001F0F1F808F0070008B9C2
:1044F000012000E0002050B900BF502080F3118857
:10450000BFF34F8FBFF36F8F00BF00BFFEE7404682
:10451000BDE8F0817C0000208800002080000020A1
:1045200074000020840000200648006830B105496E
:10453000096801F14800896C491C01600148006864
:104540007047000038000020001F4FF080730360A8
:10455000001F21F001030360001F054B03601438A6
:104560000260001F6FF002030360203870470000F4
:104570002D43000810B500203649086060E0364839
:10458000007801280FD1354832490968405A4DF664
:10459000D351884216D10120314908702D48006856
:1045A000304908600EE02D482A490968405A4BF20C
:1045B000BB31884206D10120274908702548006890
:1045C0002949086023480068401C224908602248A5
:1045D000007820B12248007808B1012000E00020D6
:1045E00001282DD11F4A12681F4B1B68D21A911E39
:1045F0001A4A1D4B1B681A44901CFEF735FB1748DE
:10460000B0F8001417480088801C081A00B213493B
:10461000A1F800040846B0F90004002810DD08469F
:10462000B0F900240F4B1B681844811C0B48FBF7A2
:1046300058FE00200A4908700749087005490860BB
:104640000648B0F9001403480068801C814296DADD
:1046500010BD00002C00001020000010C408002035
:1046600021000010280000102400001010B552484E
:104670000078B0B15148B0F8030040F004004F4951
:10468000A1F803000846B0F8030020F00200A1F8EA
:1046900003000846B0F8030020F00800A1F803006A
:1046A0002FE045484078B0B14448B0F8030040F0EE
:1046B00008004249A1F803000846B0F8030020F0C2
:1046C0000400A1F803000846B0F8030020F002003F
:1046D000A1F8030015E03948B0F8030040F00200EB
:1046E0003649A1F803000846B0F8030020F00400A2
:1046F000A1F803000846B0F8030020F00800A1F874
:1047000003002D48C07840B12C48B0F8030040F0B9
:1047100040002A49A1F8030007E02848B0F8030048
:1047200020F040002549A1F803002348007940B15A
:104730002248B0F8030040F080002049A1F80300AF
:1047400007E01E48B0F8030020F080001B49A1F8E4
:1047500003001948807940B11848B0F8030040F4CC
:1047600000701649A1F8030007E01448B0F80300F0
:1047700020F400701149A1F803000F48407940B1BE
:104780000E48B0F8030040F480600C49A1F8030023
:1047900007E00A48B0F8030020F480600749A1F858
:1047A000030000F07FF80548B0F803000449A1F8C1
:1047B000030000F0A1F810BD10000010050000106B
:1047C00031000010FFF76CFAFFF722FAFFF788FAC2
:1047D0000DE04FF4FA70FFF71DFB4FF480710448B1
:1047E000FCF774FD4FF400410248FCF76FFDF0E761
:1047F000001802400014024001460A69D1E9013064
:104800009860D1E9010358605068884201D18868F6
:104810005060002008611068401E106010687047EA
:10482000034B0360034B0B60802313607047000051
:10483000840F0020D80F002000F1080141604FF0E4
:10484000FF31816000F10801C16001610021016058
:10485000704700210161704710B502460B685C1C6F
:104860000CB9106907E002F1080000E040684468F4
:1048700024689C42FAD944684C604C68A160886006
:1048800041600A611468641C146010BD42684A608B
:1048900093688B60936859609160086103685B1C42
:1048A0000360704700BF502080F31188BFF34F8F23
:1048B000BFF36F8F00BF0E480068401C0C490860B2
:1048C00008460068012812D10A480068C0B208B939
:1048D000012000E0002050B900BF502080F3118873
:1048E000BFF34F8FBFF36F8F00BF00BFFEE770476E
:1048F0004C00001004ED00E00D48006850B900BF06
:10490000502080F31188BFF34F8FBFF36F8F00BF2C
:1049100000BFFEE706480068401E054908600846DB
:10492000006820B9002080F3118800BF00BF7047E5
:104930004C00001070B506463546002E3FD0083DAD
:104940002C461F4960680968084008B1012000E052
:10495000002050B900BF502080F31188BFF34F8F63
:10496000BFF36F8F00BF00BFFEE7206808B90120CA
:1049700000E0002050B900BF502080F31188BFF341
:104980004F8FBFF36F8F00BF00BFFEE70C49606819
:104990000968084098B1206888B9094960680968C1
:1049A0008843606000F08EF9064960680968084431
:1049B000044908602046FFF75DFC00F087FE70BDEB
:1049C000880000208000002000204FF0E0210861D6
:1049D0008861064800684FF47A71B0FBF1F0401E20
:1049E0004FF0E02148610720086170473400002043
:1049F00070B5FBF72FFC0446102C16D304F1E02011
:104A000090F8F05315480078854201DB012000E062
:104A1000002050B900BF502080F31188BFF34F8FA2
:104A2000BFF36F8F00BF00BFFEE70D48006800F4C2
:104A3000E0600C490968884201D8012000E00020AC
:104A400050B900BF502080F31188BFF34F8FBFF3E0
:104A50006F8F00BF00BFFEE770BD00005000001068
:104A60000CED00E05400001070B504460025D4B1F0
:104A70001248006808B9012000E0002050B900BFCA
:104A8000502080F31188BFF34F8FBFF36F8F00BFAB
:104A900000BFFEE700F016F900212046FFF7FAF903
:104AA00000F014FE05463DB94FF0805004490860FF
:104AB000BFF34F8FBFF36F8F70BD000070000020F9
:104AC00004ED00E003490968016003490968416099
:104AD00070470000600000204C00002001200149C8
:104AE000086070475C00002070B504460D4654B95C
:104AF00000BF502080F31188BFF34F8FBFF36F8F3B
:104B000000BF00BFFEE70548016818312046FFF7E7
:104B1000A3FE01212846FFF7BDF970BD3800002033
:104B20002DE9F04706460F4634464FF00109002EA6
:104B300067D0A06C50B900BF502080F31188BFF33C
:104B40004F8FBFF36F8F00BF00BFFEE7606CB842AE
:104B500001D23D4600E0656CE06AA84251D0A06CED
:104B600001284ED128480068844201D0012000E08D
:104B7000002050B900BF502080F31188BFF34F8F41
:104B8000BFF36F8F00BF00BFFEE7D4F82C80E56253
:104B9000A06900F0004010B9C5F10700A06108EB62
:104BA00088011A4A02EB81016069884201D1012023
:104BB00000E0002028B3201DFFF71EFE78B9E06A50
:104BC00000EB8000114951F8200040B994F82C10F6
:104BD000012088400E49096881430D48016094F81E
:104BE0002C10012088400A490968084308490860D8
:104BF000E16A01EB8101054A02EB8100211DFFF70B
:104C000045FEBDE8F087000038000020E8000010F5
:104C10005000002010B586B000200590049003AA33
:104C200004A905A8FFF7FCFD0022DDE904101346E6
:104C3000CDE9002102901CA11D48039A00F084FBDD
:104C40001C4908600846006808B1012400E00024FF
:104C5000012C15D100BF502080F31188BFF34F8F76
:104C6000BFF36F8F00BF4FF0FF3013490860012082
:104C70001249086000201249086000F071F810E045
:104C8000601C08B1012000E0002050B900BF502096
:104C900080F31188BFF34F8FBFF36F8F00BF00BF4A
:104CA000FEE706B010BD000049444C45000000007E
:104CB000094100086C00002068000020540000201A
:104CC0004C00002002480068401C01490860704701
:104CD000700000201D48006818B101201C490860C0
:104CE00032E000201A4908601A480068B0FA80F0E3
:104CF000C0F11F0101EB8100174A52F8200008B1F2
:104D0000012000E0002050B900BF502080F311883E
:104D1000BFF34F8FBFF36F8F00BF00BFFEE701EB04
:104D200081020D4B03EB820042685268426000F141
:104D300008024368934202D1426852684260426866
:104D4000D268064B1A6000BF704700007000002058
:104D50005C00002050000020E80000103800002017
:104D60001CB5524800685249884201D0012000E039
:104D7000002050B900BF502080F31188BFF34F8F3F
:104D8000BFF36F8F00BF00BFFEE748480068484987
:104D9000491E884201D0012000E0002050B900BF28
:104DA000502080F31188BFF34F8FBFF36F8F00BF88
:104DB00000BFFEE73F49084600780190FF200A4601
:104DC00010700846007800909DF8000000F0F00098
:104DD0009DF80020904201D1012000E0002050B950
:104DE00000BF502080F31188BFF34F8FBFF36F8F48
:104DF00000BF00BFFEE79DF8000000F050002E4A03
:104E0000107007202D4A106009E02C480068401EF1
:104E10002A4A10609DF800004006000E00909DF8A0
:104E2000000000F080008028EFD024480068C0F126
:104E30000700042801D1012000E0002050B900BF84
:104E4000502080F31188BFF34F8FBFF36F8F00BFE7
:104E500000BFFEE7194800680002184A10601046BB
:104E6000008800F4E0601060124A019810700F484A
:104E70002030006840F470000C492031086008467A
:104E8000006840F070400860FFF79EFD00200C496C
:104E90000860FBF7A7F90B48006840F0404009495B
:104EA0000860FBF78BF900201CBD000000ED00E05E
:104EB00071C20F4100E400E05000001054000010E7
:104EC0004C00001034EF00E02DE9F84305460E4693
:104ED00090460DB1012000E0002050B900BF5020E5
:104EE00080F31188BFF34F8FBFF36F8F00BF00BFF8
:104EF000FEE70EB9002701E005FB06F707F14800C1
:104F0000FFF774FA044664B1A14609F1480900208C
:104F100084F8460043464A46314628460094FFF747
:104F200007F92046BDE8F88370B505460E462C46C5
:104F300054B900BF502080F31188BFF34F8FBFF3E7
:104F40006F8F00BF00BFFEE7FFF7ACFCD4E90F1284
:104F5000206801FB0200A0600020A0632068606060
:104F6000E06B401E226C216800FB0211E160FF2013
:104F700084F8440084F845009EB9206908B90120EE
:104F800000E00020A8B904F1100000F053FB80B14C
:104F90004FF0805009490860BFF34F8FBFF36F8F08
:104FA00007E004F11000FFF747FC04F12400FFF7CD
:104FB00043FCFFF7A1FC012070BD000004ED00E000
:104FC0002DE9F04706460F46344654B900BF50203D
:104FD00080F31188BFF34F8FBFF36F8F00BF00BF07
:104FE000FEE7206C08B9012000E0002050B900BFA6
:104FF000502080F31188BFF34F8FBFF36F8F00BF36
:1050000000BFFEE7206808B9A06808B9012000E0E9
:10501000002050B900BF502080F31188BFF34F8F9C
:10502000BFF36F8F00BF00BFFEE7FFF7E1FC00BFDB
:105030005021EFF3118081F31188BFF34F8FBFF33D
:105040006F8F00BF0546D4F83890E06B48451ED9F5
:1050500094F945A009F10100A0630AF1010070B9BB
:10506000606A08B9012000E0002068B904F124005A
:1050700000F0E0FA40B13FB10120386004E00AF1ED
:10508000010040B284F845004FF0010801E04FF004
:10509000000800BF85F3118800BF4046BDE8F087D7
:1050A0002DE9F34182B005464FF000082C4600265A
:1050B00054B900BF502080F31188BFF34F8FBFF366
:1050C0006F8F00BF00BFFEE7206C08B9012000E031
:1050D000002050B900BF502080F31188BFF34F8FDC
:1050E000BFF36F8F00BF00BFFEE700F08BF908B978
:1050F000039808B9012000E0002050B900BF5020FB
:1051000080F31188BFF34F8FBFF36F8F00BF00BFD5
:10511000FEE700BFFFF7C6FBA76BFFB1781EA063D9
:10512000206810B9FFF700FAA060206908B90120D3
:1051300000E0002060B904F1100000F07BFA38B103
:105140004FF0805043490860BFF34F8FBFF36F8F1C
:10515000FFF7D2FB012004B0BDE8F081039898B9B5
:105160000EB9012000E0002050B900BF502080F3AC
:105170001188BFF34F8FBFF36F8F00BF00BFFEE7F3
:10518000FFF7BAFB0020E6E7B8F1000F04D168464C
:10519000FFF798FC4FF00108FFF7AEFBFFF792FD19
:1051A000FFF780FB94F94400401C10B9002084F8FC
:1051B000440094F94500401C10B9002084F84500D3
:1051C000FFF79AFB03A9684600F046F840BB20466B
:1051D000FFF784F8F0B1206838B9FFF763FBA068E7
:1051E00000F0C4F90646FFF787FB04F12400039999
:1051F000FFF77AFC2046FFF7B9F800F067FA0028BD
:1052000088D14FF0805013490860BFF34F8FBFF330
:105210006F8F7FE72046FFF7A9F800F057FA79E78C
:105220002046FFF7A3F800F051FA2046FFF756F8A2
:105230000028EED05EB1FFF735FB2046FEF71CFFDD
:1052400007463946A068FFF76BFCFFF755FB0020C7
:1052500081E7000004ED00E070B505460C4655B945
:1052600000BF502080F31188BFF34F8FBFF36F8FC3
:1052700000BF00BFFEE754B900BF502080F3118883
:10528000BFF34F8FBFF36F8F00BF00BFFEE7FFF785
:1052900009FB124802686868131A2068401C08B9A4
:1052A000002617E00E4928680968884204D068681B
:1052B000904201D801260DE02068984207D9206865
:1052C000C01A20602846FFF7FDFB002602E0002000
:1052D00020600126FFF710FB304670BD4C00002017
:1052E000600000202DE9FF4F85B0804689461746B3
:1052F000DDE912ABB800FFF779F8064656B1542045
:10530000FFF774F804460CB1266304E03046FFF75B
:1053100011FB00E000248CB1002084F85100CDE99D
:1053200000ABCDE902403A4649464046089BFEF7AD
:1053300012FF2046FEF7FAFD012501E04FF0FF3590
:10534000284609B0BDE8F08F2DE9F04F85B007463B
:10535000884691469A46DDE90EB6109C0EB10120B2
:1053600000E0002050B900BF502080F31188BFF347
:105370004F8FBFF36F8F00BF00BFFEE70CB101205E
:1053800000E0002050B900BF502080F31188BFF327
:105390004F8FBFF36F8F00BF00BFFEE75420039015
:1053A0000398542801D1012000E0002050B900BF2B
:1053B000502080F31188BFF34F8FBFF36F8F00BF72
:1053C00000BFFEE700BFB4B1AEB125462C462E6348
:1053D000022085F85100002004A953464A46CDE931
:1053E00000B1CDE9025041463846FEF7B4FE2846EA
:1053F000FEF79CFD01E000200490049805B0BDE894
:10540000F08F00000549096809B9012005E0044949
:10541000096809B9022000E000207047540000200C
:10542000700000202DE9F0414FF00008444800686A
:10543000002877D143480068451C4248056015BBE9
:1054400041480068006808B9012000E0002050B918
:1054500000BF502080F31188BFF34F8FBFF36F8FD1
:1054600000BF00BFFEE73848076838480068364983
:1054700008603648076036480068401C34490860B8
:10548000FEF73AFF00BF3348006885423CD300BFB7
:105490002D480068006808B9012000E0002020B114
:1054A0004FF0FF302B4908602DE027480068C068A6
:1054B000C4686668B54202D22648066023E0201D13
:1054C000FFF79AF9A06A18B104F11800FFF794F9F0
:1054D00094F82C10012088401F49096808431E4990
:1054E0000860E16A01EB81011C4A02EB8100211D89
:1054F000FFF7CCF91A49E06A0968C96A8842C7D33C
:105500004FF00108C4E700BF15480068C06A00EB0F
:105510008000124951F82000012801D94FF00108FC
:1055200005E0FFE70F480068401C0E4908600E4880
:10553000006808B14FF001084046BDE8F081000066
:10554000700000204C0000203C00002040000020A3
:10555000600000206800002050000020E8000010DB
:1055600038000020580000205C00002070B505467F
:105570002C460026002D54D02B49E06A0968C96AE0
:10558000884247D2A06900F0004028B92648006848
:10559000C06AC0F10700A061E16A01EB8101234A02
:1055A00002EB81016069884201D1012000E0002006
:1055B00050B3201DFFF720F978B9E06A00EB8000B6
:1055C0001A4951F8200040B994F82C100120884065
:1055D0001749096881431648016013480068C06A8A
:1055E000E06294F82C1001208840114909680843B2
:1055F0000F490860E16A01EB81010C4A02EB81006E
:10560000211DFFF743F903E007480068C06AE06224
:10561000012606E00449606C0968C96A884200D224
:105620000126304670BD000038000020E800001060
:105630005000002070B50646F068C46854B900BF39
:10564000502080F31188BFF34F8FBFF36F8F00BFDF
:1056500000BFFEE704F11800FFF7CEF81548006818
:10566000A8B9201DFFF7C8F894F82C100120884035
:1056700011490968084310490860E16A01EB81019A
:105680000E4A02EB8100211DFFF700F904E004F14E
:1056900018010B48FFF7FAF80A49E06A0968C96A75
:1056A000884204D9012501200749086000E000254F
:1056B000284670BD7000002050000020E800001057
:1056C0009C010010380000205C00002070B5002410
:1056D00000263648006850B900BF502080F311887A
:1056E000BFF34F8FBFF36F8F00BF00BFFEE7FFF721
:1056F000D9F82E480068401E2C490860084600680A
:1057000000284FD12A48006800284BD024E02948BF
:10571000C068C46804F11800FFF76EF8201DFFF799
:105720006BF894F82C10012088402349096808433D
:1057300021490860E16A01EB8101204A02EB810006
:10574000211DFFF7A3F81E49E06A0968C96A88426B
:1057500002D301201B4908601648006808B90120DF
:1057600000E000200028D2D00CB1FEF7C5FD16489D
:10577000056865B100BFFFF755FE10B10120114962
:1057800008606D1E002DF6D100200F4908600D48FD
:10579000006838B1012630070C490860BFF34F8F0D
:1057A000BFF36F8FFFF7A8F8304670BD7000002080
:1057B000480000209C01001050000020E80000106C
:1057C000380000205C0000205800002004ED00E0BC
:1057D00050617273654672616D650000185800086B
:1057E000FD2C000800000000000000008000000008
:1057F0000000000000000000000610160006101651
:105800000000000000000000010203040607080970
:10581000000000000102030464656661756C745445
:1058200061736B0064580008000000208C000000C9
:1058300098350008F0580008000000105C000000D7
:1058400098350008F05800088C0000204C01010039
:10585000A83500084C5900085C0000107C010000CD
:10586000A835000800000000000000000000000053
:105870000000000000000000000000000000000028
:105880000000000000000000000000000000000018
:1058900010000000010000000024F40000000000DF
:1058A00000000000000000000000000000000000F8
:1058B00000000000000000000000000000000000E8
:1058C00000000000000000000000000000000000D8
:1058D00000000000000000000000000000000000C8
:1058E00000000000000000000000000000000000B8
:1058F00000000000000000000000000000000000A8
:105900000000000000000000000000000000000097
:105910000000000000000000000000000000000087
:105920000000000000000000000000000000000077
:10593000000000000000000000000000AAAAAAAABF
:0C5940000000000000000000000000005B
:040000050800018965
:00000001FF
